{
    "_format": "hh-sol-artifact-1",
    "contractName": "PlatziPunks",
    "sourceName": "contracts/PlatziPunks.sol",
    "abi": [
        {
            "inputs": [
                {
                    "internalType": "uint256",
                    "name": "_maxSupply",
                    "type": "uint256"
                }
            ],
            "stateMutability": "nonpayable",
            "type": "constructor"
        },
        {
            "anonymous": false,
            "inputs": [
                {
                    "indexed": true,
                    "internalType": "address",
                    "name": "owner",
                    "type": "address"
                },
                {
                    "indexed": true,
                    "internalType": "address",
                    "name": "approved",
                    "type": "address"
                },
                {
                    "indexed": true,
                    "internalType": "uint256",
                    "name": "tokenId",
                    "type": "uint256"
                }
            ],
            "name": "Approval",
            "type": "event"
        },
        {
            "anonymous": false,
            "inputs": [
                {
                    "indexed": true,
                    "internalType": "address",
                    "name": "owner",
                    "type": "address"
                },
                {
                    "indexed": true,
                    "internalType": "address",
                    "name": "operator",
                    "type": "address"
                },
                {
                    "indexed": false,
                    "internalType": "bool",
                    "name": "approved",
                    "type": "bool"
                }
            ],
            "name": "ApprovalForAll",
            "type": "event"
        },
        {
            "anonymous": false,
            "inputs": [
                {
                    "indexed": true,
                    "internalType": "address",
                    "name": "from",
                    "type": "address"
                },
                {
                    "indexed": true,
                    "internalType": "address",
                    "name": "to",
                    "type": "address"
                },
                {
                    "indexed": true,
                    "internalType": "uint256",
                    "name": "tokenId",
                    "type": "uint256"
                }
            ],
            "name": "Transfer",
            "type": "event"
        },
        {
            "inputs": [
                {
                    "internalType": "address",
                    "name": "to",
                    "type": "address"
                },
                {
                    "internalType": "uint256",
                    "name": "tokenId",
                    "type": "uint256"
                }
            ],
            "name": "approve",
            "outputs": [],
            "stateMutability": "nonpayable",
            "type": "function"
        },
        {
            "inputs": [
                {
                    "internalType": "address",
                    "name": "owner",
                    "type": "address"
                }
            ],
            "name": "balanceOf",
            "outputs": [
                {
                    "internalType": "uint256",
                    "name": "",
                    "type": "uint256"
                }
            ],
            "stateMutability": "view",
            "type": "function"
        },
        {
            "inputs": [
                {
                    "internalType": "uint256",
                    "name": "_tokenId",
                    "type": "uint256"
                },
                {
                    "internalType": "address",
                    "name": "_minter",
                    "type": "address"
                }
            ],
            "name": "deterministicPseudoRandomDNA",
            "outputs": [
                {
                    "internalType": "uint256",
                    "name": "",
                    "type": "uint256"
                }
            ],
            "stateMutability": "pure",
            "type": "function"
        },
        {
            "inputs": [
                {
                    "internalType": "uint256",
                    "name": "_dna",
                    "type": "uint256"
                }
            ],
            "name": "getAccessoriesType",
            "outputs": [
                {
                    "internalType": "string",
                    "name": "",
                    "type": "string"
                }
            ],
            "stateMutability": "view",
            "type": "function"
        },
        {
            "inputs": [
                {
                    "internalType": "uint256",
                    "name": "tokenId",
                    "type": "uint256"
                }
            ],
            "name": "getApproved",
            "outputs": [
                {
                    "internalType": "address",
                    "name": "",
                    "type": "address"
                }
            ],
            "stateMutability": "view",
            "type": "function"
        },
        {
            "inputs": [
                {
                    "internalType": "uint256",
                    "name": "_dna",
                    "type": "uint256"
                }
            ],
            "name": "getClotheColor",
            "outputs": [
                {
                    "internalType": "string",
                    "name": "",
                    "type": "string"
                }
            ],
            "stateMutability": "view",
            "type": "function"
        },
        {
            "inputs": [
                {
                    "internalType": "uint256",
                    "name": "_dna",
                    "type": "uint256"
                }
            ],
            "name": "getClotheType",
            "outputs": [
                {
                    "internalType": "string",
                    "name": "",
                    "type": "string"
                }
            ],
            "stateMutability": "view",
            "type": "function"
        },
        {
            "inputs": [
                {
                    "internalType": "uint256",
                    "name": "_dna",
                    "type": "uint256"
                }
            ],
            "name": "getEyeBrowType",
            "outputs": [
                {
                    "internalType": "string",
                    "name": "",
                    "type": "string"
                }
            ],
            "stateMutability": "view",
            "type": "function"
        },
        {
            "inputs": [
                {
                    "internalType": "uint256",
                    "name": "_dna",
                    "type": "uint256"
                }
            ],
            "name": "getEyeType",
            "outputs": [
                {
                    "internalType": "string",
                    "name": "",
                    "type": "string"
                }
            ],
            "stateMutability": "view",
            "type": "function"
        },
        {
            "inputs": [
                {
                    "internalType": "uint256",
                    "name": "_dna",
                    "type": "uint256"
                }
            ],
            "name": "getFacialHairColor",
            "outputs": [
                {
                    "internalType": "string",
                    "name": "",
                    "type": "string"
                }
            ],
            "stateMutability": "view",
            "type": "function"
        },
        {
            "inputs": [
                {
                    "internalType": "uint256",
                    "name": "_dna",
                    "type": "uint256"
                }
            ],
            "name": "getFacialHairType",
            "outputs": [
                {
                    "internalType": "string",
                    "name": "",
                    "type": "string"
                }
            ],
            "stateMutability": "view",
            "type": "function"
        },
        {
            "inputs": [
                {
                    "internalType": "uint256",
                    "name": "_dna",
                    "type": "uint256"
                }
            ],
            "name": "getGraphicType",
            "outputs": [
                {
                    "internalType": "string",
                    "name": "",
                    "type": "string"
                }
            ],
            "stateMutability": "view",
            "type": "function"
        },
        {
            "inputs": [
                {
                    "internalType": "uint256",
                    "name": "_dna",
                    "type": "uint256"
                }
            ],
            "name": "getHairColor",
            "outputs": [
                {
                    "internalType": "string",
                    "name": "",
                    "type": "string"
                }
            ],
            "stateMutability": "view",
            "type": "function"
        },
        {
            "inputs": [
                {
                    "internalType": "uint256",
                    "name": "_dna",
                    "type": "uint256"
                }
            ],
            "name": "getHatColor",
            "outputs": [
                {
                    "internalType": "string",
                    "name": "",
                    "type": "string"
                }
            ],
            "stateMutability": "view",
            "type": "function"
        },
        {
            "inputs": [
                {
                    "internalType": "uint256",
                    "name": "_dna",
                    "type": "uint256"
                }
            ],
            "name": "getMouthType",
            "outputs": [
                {
                    "internalType": "string",
                    "name": "",
                    "type": "string"
                }
            ],
            "stateMutability": "view",
            "type": "function"
        },
        {
            "inputs": [
                {
                    "internalType": "uint256",
                    "name": "_dna",
                    "type": "uint256"
                }
            ],
            "name": "getSkinColor",
            "outputs": [
                {
                    "internalType": "string",
                    "name": "",
                    "type": "string"
                }
            ],
            "stateMutability": "view",
            "type": "function"
        },
        {
            "inputs": [
                {
                    "internalType": "uint256",
                    "name": "_dna",
                    "type": "uint256"
                }
            ],
            "name": "getTopType",
            "outputs": [
                {
                    "internalType": "string",
                    "name": "",
                    "type": "string"
                }
            ],
            "stateMutability": "view",
            "type": "function"
        },
        {
            "inputs": [
                {
                    "internalType": "uint256",
                    "name": "_dna",
                    "type": "uint256"
                }
            ],
            "name": "imageByDNA",
            "outputs": [
                {
                    "internalType": "string",
                    "name": "",
                    "type": "string"
                }
            ],
            "stateMutability": "view",
            "type": "function"
        },
        {
            "inputs": [
                {
                    "internalType": "address",
                    "name": "owner",
                    "type": "address"
                },
                {
                    "internalType": "address",
                    "name": "operator",
                    "type": "address"
                }
            ],
            "name": "isApprovedForAll",
            "outputs": [
                {
                    "internalType": "bool",
                    "name": "",
                    "type": "bool"
                }
            ],
            "stateMutability": "view",
            "type": "function"
        },
        {
            "inputs": [],
            "name": "maxSupply",
            "outputs": [
                {
                    "internalType": "uint256",
                    "name": "",
                    "type": "uint256"
                }
            ],
            "stateMutability": "view",
            "type": "function"
        },
        {
            "inputs": [],
            "name": "mint",
            "outputs": [],
            "stateMutability": "nonpayable",
            "type": "function"
        },
        {
            "inputs": [],
            "name": "name",
            "outputs": [
                {
                    "internalType": "string",
                    "name": "",
                    "type": "string"
                }
            ],
            "stateMutability": "view",
            "type": "function"
        },
        {
            "inputs": [
                {
                    "internalType": "uint256",
                    "name": "tokenId",
                    "type": "uint256"
                }
            ],
            "name": "ownerOf",
            "outputs": [
                {
                    "internalType": "address",
                    "name": "",
                    "type": "address"
                }
            ],
            "stateMutability": "view",
            "type": "function"
        },
        {
            "inputs": [
                {
                    "internalType": "address",
                    "name": "from",
                    "type": "address"
                },
                {
                    "internalType": "address",
                    "name": "to",
                    "type": "address"
                },
                {
                    "internalType": "uint256",
                    "name": "tokenId",
                    "type": "uint256"
                }
            ],
            "name": "safeTransferFrom",
            "outputs": [],
            "stateMutability": "nonpayable",
            "type": "function"
        },
        {
            "inputs": [
                {
                    "internalType": "address",
                    "name": "from",
                    "type": "address"
                },
                {
                    "internalType": "address",
                    "name": "to",
                    "type": "address"
                },
                {
                    "internalType": "uint256",
                    "name": "tokenId",
                    "type": "uint256"
                },
                {
                    "internalType": "bytes",
                    "name": "_data",
                    "type": "bytes"
                }
            ],
            "name": "safeTransferFrom",
            "outputs": [],
            "stateMutability": "nonpayable",
            "type": "function"
        },
        {
            "inputs": [
                {
                    "internalType": "address",
                    "name": "operator",
                    "type": "address"
                },
                {
                    "internalType": "bool",
                    "name": "approved",
                    "type": "bool"
                }
            ],
            "name": "setApprovalForAll",
            "outputs": [],
            "stateMutability": "nonpayable",
            "type": "function"
        },
        {
            "inputs": [
                {
                    "internalType": "bytes4",
                    "name": "interfaceId",
                    "type": "bytes4"
                }
            ],
            "name": "supportsInterface",
            "outputs": [
                {
                    "internalType": "bool",
                    "name": "",
                    "type": "bool"
                }
            ],
            "stateMutability": "view",
            "type": "function"
        },
        {
            "inputs": [],
            "name": "symbol",
            "outputs": [
                {
                    "internalType": "string",
                    "name": "",
                    "type": "string"
                }
            ],
            "stateMutability": "view",
            "type": "function"
        },
        {
            "inputs": [
                {
                    "internalType": "uint256",
                    "name": "index",
                    "type": "uint256"
                }
            ],
            "name": "tokenByIndex",
            "outputs": [
                {
                    "internalType": "uint256",
                    "name": "",
                    "type": "uint256"
                }
            ],
            "stateMutability": "view",
            "type": "function"
        },
        {
            "inputs": [
                {
                    "internalType": "uint256",
                    "name": "",
                    "type": "uint256"
                }
            ],
            "name": "tokenDNA",
            "outputs": [
                {
                    "internalType": "uint256",
                    "name": "",
                    "type": "uint256"
                }
            ],
            "stateMutability": "view",
            "type": "function"
        },
        {
            "inputs": [
                {
                    "internalType": "address",
                    "name": "owner",
                    "type": "address"
                },
                {
                    "internalType": "uint256",
                    "name": "index",
                    "type": "uint256"
                }
            ],
            "name": "tokenOfOwnerByIndex",
            "outputs": [
                {
                    "internalType": "uint256",
                    "name": "",
                    "type": "uint256"
                }
            ],
            "stateMutability": "view",
            "type": "function"
        },
        {
            "inputs": [
                {
                    "internalType": "uint256",
                    "name": "tokenId",
                    "type": "uint256"
                }
            ],
            "name": "tokenURI",
            "outputs": [
                {
                    "internalType": "string",
                    "name": "",
                    "type": "string"
                }
            ],
            "stateMutability": "view",
            "type": "function"
        },
        {
            "inputs": [],
            "name": "totalSupply",
            "outputs": [
                {
                    "internalType": "uint256",
                    "name": "",
                    "type": "uint256"
                }
            ],
            "stateMutability": "view",
            "type": "function"
        },
        {
            "inputs": [
                {
                    "internalType": "address",
                    "name": "from",
                    "type": "address"
                },
                {
                    "internalType": "address",
                    "name": "to",
                    "type": "address"
                },
                {
                    "internalType": "uint256",
                    "name": "tokenId",
                    "type": "uint256"
                }
            ],
            "name": "transferFrom",
            "outputs": [],
            "stateMutability": "nonpayable",
            "type": "function"
        }
    ],
    "bytecode": "0x60806040526040518060e001604052806040518060400160405280600581526020017f426c616e6b00000000000000000000000000000000000000000000000000000081525081526020016040518060400160405280600481526020017f4b7572740000000000000000000000000000000000000000000000000000000081525081526020016040518060400160405280600e81526020017f507265736372697074696f6e303100000000000000000000000000000000000081525081526020016040518060400160405280600e81526020017f507265736372697074696f6e303200000000000000000000000000000000000081525081526020016040518060400160405280600581526020017f526f756e6400000000000000000000000000000000000000000000000000000081525081526020016040518060400160405280600a81526020017f53756e676c61737365730000000000000000000000000000000000000000000081525081526020016040518060400160405280600981526020017f5761796661726572730000000000000000000000000000000000000000000000815250815250600a906007620001bc92919062002700565b50604051806101e001604052806040518060400160405280600581526020017f426c61636b00000000000000000000000000000000000000000000000000000081525081526020016040518060400160405280600681526020017f426c75653031000000000000000000000000000000000000000000000000000081525081526020016040518060400160405280600681526020017f426c75653032000000000000000000000000000000000000000000000000000081525081526020016040518060400160405280600681526020017f426c75653033000000000000000000000000000000000000000000000000000081525081526020016040518060400160405280600681526020017f477261793031000000000000000000000000000000000000000000000000000081525081526020016040518060400160405280600681526020017f477261793032000000000000000000000000000000000000000000000000000081525081526020016040518060400160405280600781526020017f486561746865720000000000000000000000000000000000000000000000000081525081526020016040518060400160405280600a81526020017f50617374656c426c75650000000000000000000000000000000000000000000081525081526020016040518060400160405280600b81526020017f50617374656c477265656e00000000000000000000000000000000000000000081525081526020016040518060400160405280600c81526020017f50617374656c4f72616e6765000000000000000000000000000000000000000081525081526020016040518060400160405280600981526020017f50617374656c526564000000000000000000000000000000000000000000000081525081526020016040518060400160405280600c81526020017f50617374656c59656c6c6f77000000000000000000000000000000000000000081525081526020016040518060400160405280600481526020017f50696e6b0000000000000000000000000000000000000000000000000000000081525081526020016040518060400160405280600381526020017f526564000000000000000000000000000000000000000000000000000000000081525081526020016040518060400160405280600581526020017f5768697465000000000000000000000000000000000000000000000000000000815250815250600b90600f6200054e92919062002767565b506040518061012001604052806040518060400160405280600b81526020017f426c617a6572536869727400000000000000000000000000000000000000000081525081526020016040518060400160405280600d81526020017f426c617a6572537765617465720000000000000000000000000000000000000081525081526020016040518060400160405280600d81526020017f436f6c6c6172537765617465720000000000000000000000000000000000000081525081526020016040518060400160405280600c81526020017f477261706869635368697274000000000000000000000000000000000000000081525081526020016040518060400160405280600681526020017f486f6f646965000000000000000000000000000000000000000000000000000081525081526020016040518060400160405280600781526020017f4f766572616c6c0000000000000000000000000000000000000000000000000081525081526020016040518060400160405280600d81526020017f5368697274437265774e65636b0000000000000000000000000000000000000081525081526020016040518060400160405280600e81526020017f536869727453636f6f704e65636b00000000000000000000000000000000000081525081526020016040518060400160405280600a81526020017f5368697274564e65636b00000000000000000000000000000000000000000000815250815250600c9060096200077e929190620027ce565b506040518061018001604052806040518060400160405280600581526020017f436c6f736500000000000000000000000000000000000000000000000000000081525081526020016040518060400160405280600381526020017f437279000000000000000000000000000000000000000000000000000000000081525081526020016040518060400160405280600781526020017f44656661756c740000000000000000000000000000000000000000000000000081525081526020016040518060400160405280600581526020017f44697a7a7900000000000000000000000000000000000000000000000000000081525081526020016040518060400160405280600781526020017f457965526f6c6c0000000000000000000000000000000000000000000000000081525081526020016040518060400160405280600581526020017f486170707900000000000000000000000000000000000000000000000000000081525081526020016040518060400160405280600681526020017f486561727473000000000000000000000000000000000000000000000000000081525081526020016040518060400160405280600481526020017f536964650000000000000000000000000000000000000000000000000000000081525081526020016040518060400160405280600681526020017f537175696e74000000000000000000000000000000000000000000000000000081525081526020016040518060400160405280600981526020017f537572707269736564000000000000000000000000000000000000000000000081525081526020016040518060400160405280600481526020017f57696e6b0000000000000000000000000000000000000000000000000000000081525081526020016040518060400160405280600981526020017f57696e6b5761636b790000000000000000000000000000000000000000000000815250815250600d90600c62000a5f92919062002835565b506040518061018001604052806040518060400160405280600581526020017f416e67727900000000000000000000000000000000000000000000000000000081525081526020016040518060400160405280600c81526020017f416e6772794e61747572616c000000000000000000000000000000000000000081525081526020016040518060400160405280600781526020017f44656661756c740000000000000000000000000000000000000000000000000081525081526020016040518060400160405280600e81526020017f44656661756c744e61747572616c00000000000000000000000000000000000081525081526020016040518060400160405280600b81526020017f466c61744e61747572616c00000000000000000000000000000000000000000081525081526020016040518060400160405280600d81526020017f526169736564457863697465640000000000000000000000000000000000000081525081526020016040518060400160405280601481526020017f526169736564457863697465644e61747572616c00000000000000000000000081525081526020016040518060400160405280600c81526020017f536164436f6e6365726e6564000000000000000000000000000000000000000081525081526020016040518060400160405280601381526020017f536164436f6e6365726e65644e61747572616c0000000000000000000000000081525081526020016040518060400160405280600e81526020017f556e6962726f774e61747572616c00000000000000000000000000000000000081525081526020016040518060400160405280600681526020017f5570446f776e000000000000000000000000000000000000000000000000000081525081526020016040518060400160405280600d81526020017f5570446f776e4e61747572616c00000000000000000000000000000000000000815250815250600e90600c62000d4092919062002835565b506040518061010001604052806040518060400160405280600681526020017f41756275726e000000000000000000000000000000000000000000000000000081525081526020016040518060400160405280600581526020017f426c61636b00000000000000000000000000000000000000000000000000000081525081526020016040518060400160405280600681526020017f426c6f6e6465000000000000000000000000000000000000000000000000000081525081526020016040518060400160405280600c81526020017f426c6f6e6465476f6c64656e000000000000000000000000000000000000000081525081526020016040518060400160405280600581526020017f42726f776e00000000000000000000000000000000000000000000000000000081525081526020016040518060400160405280600981526020017f42726f776e4461726b000000000000000000000000000000000000000000000081525081526020016040518060400160405280600881526020017f506c6174696e756d00000000000000000000000000000000000000000000000081525081526020016040518060400160405280600381526020017f5265640000000000000000000000000000000000000000000000000000000000815250815250600f90600862000f359291906200289c565b506040518060c001604052806040518060400160405280600581526020017f426c616e6b00000000000000000000000000000000000000000000000000000081525081526020016040518060400160405280600b81526020017f42656172644d656469756d00000000000000000000000000000000000000000081525081526020016040518060400160405280600a81526020017f42656172644c696768740000000000000000000000000000000000000000000081525081526020016040518060400160405280600d81526020017f42656172644d616765737469630000000000000000000000000000000000000081525081526020016040518060400160405280600e81526020017f4d6f7573746163686546616e637900000000000000000000000000000000000081525081526020016040518060400160405280600f81526020017f4d6f757374616368654d61676e756d00000000000000000000000000000000008152508152506010906006620010b392919062002903565b506040518061014001604052806040518060400160405280600681526020017f41756275726e000000000000000000000000000000000000000000000000000081525081526020016040518060400160405280600581526020017f426c61636b00000000000000000000000000000000000000000000000000000081525081526020016040518060400160405280600681526020017f426c6f6e6465000000000000000000000000000000000000000000000000000081525081526020016040518060400160405280600c81526020017f426c6f6e6465476f6c64656e000000000000000000000000000000000000000081525081526020016040518060400160405280600581526020017f42726f776e00000000000000000000000000000000000000000000000000000081525081526020016040518060400160405280600981526020017f42726f776e4461726b000000000000000000000000000000000000000000000081525081526020016040518060400160405280600a81526020017f50617374656c50696e6b0000000000000000000000000000000000000000000081525081526020016040518060400160405280600881526020017f506c6174696e756d00000000000000000000000000000000000000000000000081525081526020016040518060400160405280600381526020017f526564000000000000000000000000000000000000000000000000000000000081525081526020016040518060400160405280600a81526020017f53696c7665724772617900000000000000000000000000000000000000000000815250815250601190600a6200131e9291906200296a565b50604051806101e001604052806040518060400160405280600581526020017f426c61636b00000000000000000000000000000000000000000000000000000081525081526020016040518060400160405280600681526020017f426c75653031000000000000000000000000000000000000000000000000000081525081526020016040518060400160405280600681526020017f426c75653032000000000000000000000000000000000000000000000000000081525081526020016040518060400160405280600681526020017f426c75653033000000000000000000000000000000000000000000000000000081525081526020016040518060400160405280600681526020017f477261793031000000000000000000000000000000000000000000000000000081525081526020016040518060400160405280600681526020017f477261793032000000000000000000000000000000000000000000000000000081525081526020016040518060400160405280600781526020017f486561746865720000000000000000000000000000000000000000000000000081525081526020016040518060400160405280600a81526020017f50617374656c426c75650000000000000000000000000000000000000000000081525081526020016040518060400160405280600b81526020017f50617374656c477265656e00000000000000000000000000000000000000000081525081526020016040518060400160405280600c81526020017f50617374656c4f72616e6765000000000000000000000000000000000000000081525081526020016040518060400160405280600981526020017f50617374656c526564000000000000000000000000000000000000000000000081525081526020016040518060400160405280600c81526020017f50617374656c59656c6c6f77000000000000000000000000000000000000000081525081526020016040518060400160405280600481526020017f50696e6b0000000000000000000000000000000000000000000000000000000081525081526020016040518060400160405280600381526020017f526564000000000000000000000000000000000000000000000000000000000081525081526020016040518060400160405280600581526020017f5768697465000000000000000000000000000000000000000000000000000000815250815250601290600f620016b092919062002767565b506040518061016001604052806040518060400160405280600381526020017f426174000000000000000000000000000000000000000000000000000000000081525081526020016040518060400160405280600681526020017f43756d626961000000000000000000000000000000000000000000000000000081525081526020016040518060400160405280600481526020017f446565720000000000000000000000000000000000000000000000000000000081525081526020016040518060400160405280600781526020017f4469616d6f6e640000000000000000000000000000000000000000000000000081525081526020016040518060400160405280600481526020017f486f6c610000000000000000000000000000000000000000000000000000000081525081526020016040518060400160405280600581526020017f50697a7a6100000000000000000000000000000000000000000000000000000081525081526020016040518060400160405280600681526020017f526573697374000000000000000000000000000000000000000000000000000081525081526020016040518060400160405280600681526020017f53656c656e61000000000000000000000000000000000000000000000000000081525081526020016040518060400160405280600481526020017f426561720000000000000000000000000000000000000000000000000000000081525081526020016040518060400160405280600c81526020017f536b756c6c4f75746c696e65000000000000000000000000000000000000000081525081526020016040518060400160405280600581526020017f536b756c6c000000000000000000000000000000000000000000000000000000815250815250601390600b62001956929190620029d1565b506040518061018001604052806040518060400160405280600981526020017f436f6e6365726e6564000000000000000000000000000000000000000000000081525081526020016040518060400160405280600781526020017f44656661756c740000000000000000000000000000000000000000000000000081525081526020016040518060400160405280600981526020017f44697362656c696566000000000000000000000000000000000000000000000081525081526020016040518060400160405280600681526020017f456174696e67000000000000000000000000000000000000000000000000000081525081526020016040518060400160405280600781526020017f4772696d6163650000000000000000000000000000000000000000000000000081525081526020016040518060400160405280600381526020017f536164000000000000000000000000000000000000000000000000000000000081525081526020016040518060400160405280600a81526020017f53637265616d4f70656e0000000000000000000000000000000000000000000081525081526020016040518060400160405280600781526020017f536572696f75730000000000000000000000000000000000000000000000000081525081526020016040518060400160405280600581526020017f536d696c6500000000000000000000000000000000000000000000000000000081525081526020016040518060400160405280600681526020017f546f6e677565000000000000000000000000000000000000000000000000000081525081526020016040518060400160405280600781526020017f5477696e6b6c650000000000000000000000000000000000000000000000000081525081526020016040518060400160405280600581526020017f566f6d6974000000000000000000000000000000000000000000000000000000815250815250601490600c62001c3792919062002835565b506040518060e001604052806040518060400160405280600681526020017f54616e6e6564000000000000000000000000000000000000000000000000000081525081526020016040518060400160405280600681526020017f59656c6c6f77000000000000000000000000000000000000000000000000000081525081526020016040518060400160405280600481526020017f50616c650000000000000000000000000000000000000000000000000000000081525081526020016040518060400160405280600581526020017f4c6967687400000000000000000000000000000000000000000000000000000081525081526020016040518060400160405280600581526020017f42726f776e00000000000000000000000000000000000000000000000000000081525081526020016040518060400160405280600981526020017f4461726b42726f776e000000000000000000000000000000000000000000000081525081526020016040518060400160405280600581526020017f426c61636b000000000000000000000000000000000000000000000000000000815250815250601590600762001df092919062002700565b506040518061046001604052806040518060400160405280600681526020017f4e6f48616972000000000000000000000000000000000000000000000000000081525081526020016040518060400160405280600881526020017f457965706174636800000000000000000000000000000000000000000000000081525081526020016040518060400160405280600381526020017f486174000000000000000000000000000000000000000000000000000000000081525081526020016040518060400160405280600581526020017f48696a616200000000000000000000000000000000000000000000000000000081525081526020016040518060400160405280600681526020017f54757262616e000000000000000000000000000000000000000000000000000081525081526020016040518060400160405280600a81526020017f57696e746572486174310000000000000000000000000000000000000000000081525081526020016040518060400160405280600a81526020017f57696e746572486174320000000000000000000000000000000000000000000081525081526020016040518060400160405280600a81526020017f57696e746572486174330000000000000000000000000000000000000000000081525081526020016040518060400160405280600a81526020017f57696e746572486174340000000000000000000000000000000000000000000081525081526020016040518060400160405280600f81526020017f4c6f6e674861697242696748616972000000000000000000000000000000000081525081526020016040518060400160405280600b81526020017f4c6f6e6748616972426f6200000000000000000000000000000000000000000081525081526020016040518060400160405280600b81526020017f4c6f6e674861697242756e00000000000000000000000000000000000000000081525081526020016040518060400160405280600d81526020017f4c6f6e67486169724375726c790000000000000000000000000000000000000081525081526020016040518060400160405280600d81526020017f4c6f6e674861697243757276790000000000000000000000000000000000000081525081526020016040518060400160405280600e81526020017f4c6f6e674861697244726561647300000000000000000000000000000000000081525081526020016040518060400160405280600d81526020017f4c6f6e674861697246726964610000000000000000000000000000000000000081525081526020016040518060400160405280600b81526020017f4c6f6e674861697246726f00000000000000000000000000000000000000000081525081526020016040518060400160405280600f81526020017f4c6f6e674861697246726f42616e64000000000000000000000000000000000081525081526020016040518060400160405280601281526020017f4c6f6e67486169724e6f74546f6f4c6f6e67000000000000000000000000000081525081526020016040518060400160405280601381526020017f4c6f6e674861697253686176656453696465730000000000000000000000000081525081526020016040518060400160405280601281526020017f4c6f6e67486169724d696157616c6c616365000000000000000000000000000081525081526020016040518060400160405280601081526020017f4c6f6e674861697253747261696768740000000000000000000000000000000081525081526020016040518060400160405280601181526020017f4c6f6e674861697253747261696768743200000000000000000000000000000081525081526020016040518060400160405280601681526020017f4c6f6e67486169725374726169676874537472616e640000000000000000000081525081526020016040518060400160405280601181526020017f53686f727448616972447265616473303100000000000000000000000000000081525081526020016040518060400160405280601181526020017f53686f727448616972447265616473303200000000000000000000000000000081525081526020016040518060400160405280601081526020017f53686f7274486169724672697a7a6c650000000000000000000000000000000081525081526020016040518060400160405280601581526020017f53686f7274486169725368616767794d756c6c6574000000000000000000000081525081526020016040518060400160405280601381526020017f53686f72744861697253686f72744375726c790000000000000000000000000081525081526020016040518060400160405280601281526020017f53686f72744861697253686f7274466c6174000000000000000000000000000081525081526020016040518060400160405280601381526020017f53686f72744861697253686f7274526f756e640000000000000000000000000081525081526020016040518060400160405280601381526020017f53686f72744861697253686f727457617665640000000000000000000000000081525081526020016040518060400160405280600e81526020017f53686f727448616972536964657300000000000000000000000000000000000081525081526020016040518060400160405280601281526020017f53686f727448616972546865436165736172000000000000000000000000000081525081526020016040518060400160405280601a81526020017f53686f727448616972546865436165736172536964655061727400000000000081525081525060169060236200261e92919062002a38565b503480156200262c57600080fd5b5060405162007b8d38038062007b8d833981810160405281019062002652919062002bd4565b6040518060400160405280600b81526020017f506c61747a6950756e6b730000000000000000000000000000000000000000008152506040518060400160405280600581526020017f504c504b530000000000000000000000000000000000000000000000000000008152508160009080519060200190620026d692919062002a9f565b508060019080519060200190620026ef92919062002a9f565b505050806018819055505062002c89565b82805482825590600052602060002090810192821562002754579160200282015b82811115620027535782518290805190602001906200274292919062002a9f565b509160200191906001019062002721565b5b50905062002763919062002b30565b5090565b828054828255906000526020600020908101928215620027bb579160200282015b82811115620027ba578251829080519060200190620027a992919062002a9f565b509160200191906001019062002788565b5b509050620027ca919062002b30565b5090565b82805482825590600052602060002090810192821562002822579160200282015b82811115620028215782518290805190602001906200281092919062002a9f565b5091602001919060010190620027ef565b5b50905062002831919062002b30565b5090565b82805482825590600052602060002090810192821562002889579160200282015b82811115620028885782518290805190602001906200287792919062002a9f565b509160200191906001019062002856565b5b50905062002898919062002b30565b5090565b828054828255906000526020600020908101928215620028f0579160200282015b82811115620028ef578251829080519060200190620028de92919062002a9f565b5091602001919060010190620028bd565b5b509050620028ff919062002b30565b5090565b82805482825590600052602060002090810192821562002957579160200282015b82811115620029565782518290805190602001906200294592919062002a9f565b509160200191906001019062002924565b5b50905062002966919062002b30565b5090565b828054828255906000526020600020908101928215620029be579160200282015b82811115620029bd578251829080519060200190620029ac92919062002a9f565b50916020019190600101906200298b565b5b509050620029cd919062002b30565b5090565b82805482825590600052602060002090810192821562002a25579160200282015b8281111562002a2457825182908051906020019062002a1392919062002a9f565b5091602001919060010190620029f2565b5b50905062002a34919062002b30565b5090565b82805482825590600052602060002090810192821562002a8c579160200282015b8281111562002a8b57825182908051906020019062002a7a92919062002a9f565b509160200191906001019062002a59565b5b50905062002a9b919062002b30565b5090565b82805462002aad9062002c0a565b90600052602060002090601f01602090048101928262002ad1576000855562002b1d565b82601f1062002aec57805160ff191683800117855562002b1d565b8280016001018555821562002b1d579182015b8281111562002b1c57825182559160200191906001019062002aff565b5b50905062002b2c919062002b58565b5090565b5b8082111562002b54576000818162002b4a919062002b77565b5060010162002b31565b5090565b5b8082111562002b7357600081600090555060010162002b59565b5090565b50805462002b859062002c0a565b6000825580601f1062002b99575062002bba565b601f01602090049060005260206000209081019062002bb9919062002b58565b5b50565b60008151905062002bce8162002c6f565b92915050565b60006020828403121562002be757600080fd5b600062002bf78482850162002bbd565b91505092915050565b6000819050919050565b6000600282049050600182168062002c2357607f821691505b6020821081141562002c3a5762002c3962002c40565b5b50919050565b7f4e487b7100000000000000000000000000000000000000000000000000000000600052602260045260246000fd5b62002c7a8162002c00565b811462002c8657600080fd5b50565b614ef48062002c996000396000f3fe608060405234801561001057600080fd5b50600436106102065760003560e01c80637ecaef061161011a578063b88d4fde116100ad578063cc4e56951161007c578063cc4e5695146106bb578063d5abeb01146106eb578063dac1419e14610709578063e2eced2814610739578063e985e9c51461076957610206565b8063b88d4fde1461060f578063be65d7511461062b578063c0496cf51461065b578063c87b56dd1461068b57610206565b806395d89b41116100e957806395d89b4114610575578063a22cb46514610593578063a2ec3e9e146105af578063b70930de146105df57610206565b80637ecaef06146104b557806384425a84146104e55780638602dd6a1461051557806388ee2c161461054557610206565b806323b872dd1161019d5780634f6ccce71161016c5780634f6ccce7146103c557806360d58aed146103f55780636352211e1461042557806370a082311461045557806373075aff1461048557610206565b806323b872dd1461032d5780632f745c5914610349578063425d784f1461037957806342842e0e146103a957610206565b8063095ea7b3116101d9578063095ea7b3146102b95780631249c58b146102d557806318160ddd146102df57806318a3c0d1146102fd57610206565b806301ffc9a71461020b578063039984ba1461023b57806306fdde031461026b578063081812fc14610289575b600080fd5b61022560048036038101906102209190613549565b610799565b6040516102329190613e21565b60405180910390f35b6102556004803603810190610250919061359b565b6107ab565b6040516102629190613e3c565b60405180910390f35b6102736108a3565b6040516102809190613e3c565b60405180910390f35b6102a3600480360381019061029e919061359b565b610935565b6040516102b09190613dba565b60405180910390f35b6102d360048036038101906102ce919061350d565b6109ba565b005b6102dd610ad2565b005b6102e7610b5c565b6040516102f4919061407e565b60405180910390f35b6103176004803603810190610312919061359b565b610b69565b6040516103249190613e3c565b60405180910390f35b61034760048036038101906103429190613407565b610c61565b005b610363600480360381019061035e919061350d565b610cc1565b604051610370919061407e565b60405180910390f35b610393600480360381019061038e919061359b565b610d66565b6040516103a09190613e3c565b60405180910390f35b6103c360048036038101906103be9190613407565b610e5e565b005b6103df60048036038101906103da919061359b565b610e7e565b6040516103ec919061407e565b60405180910390f35b61040f600480360381019061040a919061359b565b610f15565b60405161041c9190613e3c565b60405180910390f35b61043f600480360381019061043a919061359b565b61100d565b60405161044c9190613dba565b60405180910390f35b61046f600480360381019061046a91906133a2565b6110bf565b60405161047c919061407e565b60405180910390f35b61049f600480360381019061049a919061359b565b611177565b6040516104ac9190613e3c565b60405180910390f35b6104cf60048036038101906104ca919061359b565b61126f565b6040516104dc9190613e3c565b60405180910390f35b6104ff60048036038101906104fa919061359b565b611367565b60405161050c9190613e3c565b60405180910390f35b61052f600480360381019061052a919061359b565b61145f565b60405161053c9190613e3c565b60405180910390f35b61055f600480360381019061055a91906135c4565b611557565b60405161056c919061407e565b60405180910390f35b61057d6115bd565b60405161058a9190613e3c565b60405180910390f35b6105ad60048036038101906105a891906134d1565b61164f565b005b6105c960048036038101906105c4919061359b565b611665565b6040516105d69190613e3c565b60405180910390f35b6105f960048036038101906105f4919061359b565b61175d565b6040516106069190613e3c565b60405180910390f35b61062960048036038101906106249190613456565b611855565b005b6106456004803603810190610640919061359b565b6118b7565b604051610652919061407e565b60405180910390f35b6106756004803603810190610670919061359b565b6118cf565b6040516106829190613e3c565b60405180910390f35b6106a560048036038101906106a0919061359b565b6119c7565b6040516106b29190613e3c565b60405180910390f35b6106d560048036038101906106d0919061359b565b611a96565b6040516106e29190613e3c565b60405180910390f35b6106f3611b8e565b604051610700919061407e565b60405180910390f35b610723600480360381019061071e919061359b565b611b94565b6040516107309190613e3c565b60405180910390f35b610753600480360381019061074e919061359b565b611c8c565b6040516107609190613e3c565b60405180910390f35b610783600480360381019061077e91906133cb565b611cd2565b6040516107909190613e21565b60405180910390f35b60006107a482611d66565b9050919050565b606060006107ba836008611de0565b60ff169050600e8080549050826107d19190614568565b81548110610808577f4e487b7100000000000000000000000000000000000000000000000000000000600052603260045260246000fd5b90600052602060002001805461081d906144b2565b80601f0160208091040260200160405190810160405280929190818152602001828054610849906144b2565b80156108965780601f1061086b57610100808354040283529160200191610896565b820191906000526020600020905b81548152906001019060200180831161087957829003601f168201915b5050505050915050919050565b6060600080546108b2906144b2565b80601f01602080910402602001604051908101604052809291908181526020018280546108de906144b2565b801561092b5780601f106109005761010080835404028352916020019161092b565b820191906000526020600020905b81548152906001019060200180831161090e57829003601f168201915b5050505050905090565b600061094082611e3d565b61097f576040517f08c379a000000000000000000000000000000000000000000000000000000000815260040161097690613fbe565b60405180910390fd5b6004600083815260200190815260200160002060009054906101000a900473ffffffffffffffffffffffffffffffffffffffff169050919050565b60006109c58261100d565b90508073ffffffffffffffffffffffffffffffffffffffff168373ffffffffffffffffffffffffffffffffffffffff161415610a36576040517f08c379a0000000000000000000000000000000000000000000000000000000008152600401610a2d90613ffe565b60405180910390fd5b8073ffffffffffffffffffffffffffffffffffffffff16610a55611ea9565b73ffffffffffffffffffffffffffffffffffffffff161480610a845750610a8381610a7e611ea9565b611cd2565b5b610ac3576040517f08c379a0000000000000000000000000000000000000000000000000000000008152600401610aba90613f3e565b60405180910390fd5b610acd8383611eb1565b505050565b6000610ade6017611f6a565b9050610aea6017611f78565b6018548110610b2e576040517f08c379a0000000000000000000000000000000000000000000000000000000008152600401610b2590613e5e565b60405180910390fd5b610b388133611557565b6019600083815260200190815260200160002081905550610b593382611f8e565b50565b6000600880549050905090565b60606000610b78836004611de0565b60ff169050600c808054905082610b8f9190614568565b81548110610bc6577f4e487b7100000000000000000000000000000000000000000000000000000000600052603260045260246000fd5b906000526020600020018054610bdb906144b2565b80601f0160208091040260200160405190810160405280929190818152602001828054610c07906144b2565b8015610c545780601f10610c2957610100808354040283529160200191610c54565b820191906000526020600020905b815481529060010190602001808311610c3757829003601f168201915b5050505050915050919050565b610c72610c6c611ea9565b82611fac565b610cb1576040517f08c379a0000000000000000000000000000000000000000000000000000000008152600401610ca89061401e565b60405180910390fd5b610cbc83838361208a565b505050565b6000610ccc836110bf565b8210610d0d576040517f08c379a0000000000000000000000000000000000000000000000000000000008152600401610d0490613e7e565b60405180910390fd5b600660008473ffffffffffffffffffffffffffffffffffffffff1673ffffffffffffffffffffffffffffffffffffffff168152602001908152602001600020600083815260200190815260200160002054905092915050565b60606000610d75836014611de0565b60ff1690506014808054905082610d8c9190614568565b81548110610dc3577f4e487b7100000000000000000000000000000000000000000000000000000000600052603260045260246000fd5b906000526020600020018054610dd8906144b2565b80601f0160208091040260200160405190810160405280929190818152602001828054610e04906144b2565b8015610e515780601f10610e2657610100808354040283529160200191610e51565b820191906000526020600020905b815481529060010190602001808311610e3457829003601f168201915b5050505050915050919050565b610e7983838360405180602001604052806000815250611855565b505050565b6000610e88610b5c565b8210610ec9576040517f08c379a0000000000000000000000000000000000000000000000000000000008152600401610ec09061403e565b60405180910390fd5b60088281548110610f03577f4e487b7100000000000000000000000000000000000000000000000000000000600052603260045260246000fd5b90600052602060002001549050919050565b60606000610f24836018611de0565b60ff1690506016808054905082610f3b9190614568565b81548110610f72577f4e487b7100000000000000000000000000000000000000000000000000000000600052603260045260246000fd5b906000526020600020018054610f87906144b2565b80601f0160208091040260200160405190810160405280929190818152602001828054610fb3906144b2565b80156110005780601f10610fd557610100808354040283529160200191611000565b820191906000526020600020905b815481529060010190602001808311610fe357829003601f168201915b5050505050915050919050565b6000806002600084815260200190815260200160002060009054906101000a900473ffffffffffffffffffffffffffffffffffffffff169050600073ffffffffffffffffffffffffffffffffffffffff168173ffffffffffffffffffffffffffffffffffffffff1614156110b6576040517f08c379a00000000000000000000000000000000000000000000000000000000081526004016110ad90613f7e565b60405180910390fd5b80915050919050565b60008073ffffffffffffffffffffffffffffffffffffffff168273ffffffffffffffffffffffffffffffffffffffff161415611130576040517f08c379a000000000000000000000000000000000000000000000000000000000815260040161112790613f5e565b60405180910390fd5b600360008373ffffffffffffffffffffffffffffffffffffffff1673ffffffffffffffffffffffffffffffffffffffff168152602001908152602001600020549050919050565b60606000611186836016611de0565b60ff169050601580805490508261119d9190614568565b815481106111d4577f4e487b7100000000000000000000000000000000000000000000000000000000600052603260045260246000fd5b9060005260206000200180546111e9906144b2565b80601f0160208091040260200160405190810160405280929190818152602001828054611215906144b2565b80156112625780601f1061123757610100808354040283529160200191611262565b820191906000526020600020905b81548152906001019060200180831161124557829003601f168201915b5050505050915050919050565b6060600061127e836000611de0565b60ff169050600a8080549050826112959190614568565b815481106112cc577f4e487b7100000000000000000000000000000000000000000000000000000000600052603260045260246000fd5b9060005260206000200180546112e1906144b2565b80601f016020809104026020016040519081016040528092919081815260200182805461130d906144b2565b801561135a5780601f1061132f5761010080835404028352916020019161135a565b820191906000526020600020905b81548152906001019060200180831161133d57829003601f168201915b5050505050915050919050565b60606000611376836006611de0565b60ff169050600d80805490508261138d9190614568565b815481106113c4577f4e487b7100000000000000000000000000000000000000000000000000000000600052603260045260246000fd5b9060005260206000200180546113d9906144b2565b80601f0160208091040260200160405190810160405280929190818152602001828054611405906144b2565b80156114525780601f1061142757610100808354040283529160200191611452565b820191906000526020600020905b81548152906001019060200180831161143557829003601f168201915b5050505050915050919050565b6060600061146e836012611de0565b60ff16905060138080549050826114859190614568565b815481106114bc577f4e487b7100000000000000000000000000000000000000000000000000000000600052603260045260246000fd5b9060005260206000200180546114d1906144b2565b80601f01602080910402602001604051908101604052809291908181526020018280546114fd906144b2565b801561154a5780601f1061151f5761010080835404028352916020019161154a565b820191906000526020600020905b81548152906001019060200180831161152d57829003601f168201915b5050505050915050919050565b6000808273ffffffffffffffffffffffffffffffffffffffff168461157c9190614132565b90506000816040516020016115919190613d9f565b60405160208183030381529060405290506000818051906020012090508060001c935050505092915050565b6060600180546115cc906144b2565b80601f01602080910402602001604051908101604052809291908181526020018280546115f8906144b2565b80156116455780601f1061161a57610100808354040283529160200191611645565b820191906000526020600020905b81548152906001019060200180831161162857829003601f168201915b5050505050905090565b61166161165a611ea9565b83836122e6565b5050565b60606000611674836010611de0565b60ff169050601280805490508261168b9190614568565b815481106116c2577f4e487b7100000000000000000000000000000000000000000000000000000000600052603260045260246000fd5b9060005260206000200180546116d7906144b2565b80601f0160208091040260200160405190810160405280929190818152602001828054611703906144b2565b80156117505780601f1061172557610100808354040283529160200191611750565b820191906000526020600020905b81548152906001019060200180831161173357829003601f168201915b5050505050915050919050565b6060600061176c83600e611de0565b60ff16905060118080549050826117839190614568565b815481106117ba577f4e487b7100000000000000000000000000000000000000000000000000000000600052603260045260246000fd5b9060005260206000200180546117cf906144b2565b80601f01602080910402602001604051908101604052809291908181526020018280546117fb906144b2565b80156118485780601f1061181d57610100808354040283529160200191611848565b820191906000526020600020905b81548152906001019060200180831161182b57829003601f168201915b5050505050915050919050565b611866611860611ea9565b83611fac565b6118a5576040517f08c379a000000000000000000000000000000000000000000000000000000000815260040161189c9061401e565b60405180910390fd5b6118b184848484612453565b50505050565b60196020528060005260406000206000915090505481565b606060006118de836002611de0565b60ff169050600b8080549050826118f59190614568565b8154811061192c577f4e487b7100000000000000000000000000000000000000000000000000000000600052603260045260246000fd5b906000526020600020018054611941906144b2565b80601f016020809104026020016040519081016040528092919081815260200182805461196d906144b2565b80156119ba5780601f1061198f576101008083540402835291602001916119ba565b820191906000526020600020905b81548152906001019060200180831161199d57829003601f168201915b5050505050915050919050565b60606119d282611e3d565b611a11576040517f08c379a0000000000000000000000000000000000000000000000000000000008152600401611a089061405e565b60405180910390fd5b6000601960008481526020019081526020016000205490506000611a3482611c8c565b90506000611a6a611a44866124af565b83604051602001611a56929190613c0e565b60405160208183030381529060405261265c565b905080604051602001611a7d9190613d7d565b6040516020818303038152906040529350505050919050565b60606000611aa583600a611de0565b60ff169050600f808054905082611abc9190614568565b81548110611af3577f4e487b7100000000000000000000000000000000000000000000000000000000600052603260045260246000fd5b906000526020600020018054611b08906144b2565b80601f0160208091040260200160405190810160405280929190818152602001828054611b34906144b2565b8015611b815780601f10611b5657610100808354040283529160200191611b81565b820191906000526020600020905b815481529060010190602001808311611b6457829003601f168201915b5050505050915050919050565b60185481565b60606000611ba383600c611de0565b60ff1690506010808054905082611bba9190614568565b81548110611bf1577f4e487b7100000000000000000000000000000000000000000000000000000000600052603260045260246000fd5b906000526020600020018054611c06906144b2565b80601f0160208091040260200160405190810160405280929190818152602001828054611c32906144b2565b8015611c7f5780601f10611c5457610100808354040283529160200191611c7f565b820191906000526020600020905b815481529060010190602001808311611c6257829003601f168201915b5050505050915050919050565b60606000611c98612807565b90506000611ca584612844565b90508181604051602001611cba929190613bb0565b60405160208183030381529060405292505050919050565b6000600560008473ffffffffffffffffffffffffffffffffffffffff1673ffffffffffffffffffffffffffffffffffffffff16815260200190815260200160002060008373ffffffffffffffffffffffffffffffffffffffff1673ffffffffffffffffffffffffffffffffffffffff16815260200190815260200160002060009054906101000a900460ff16905092915050565b60007f780e9d63000000000000000000000000000000000000000000000000000000007bffffffffffffffffffffffffffffffffffffffffffffffffffffffff1916827bffffffffffffffffffffffffffffffffffffffffffffffffffffffff19161480611dd95750611dd882612911565b5b9050919050565b600081600a611def9190614243565b6001611dfb9190614361565b600283611e089190614188565b600a611e149190614243565b6001611e209190614361565b84611e2b9190614568565b611e3591906141bf565b905092915050565b60008073ffffffffffffffffffffffffffffffffffffffff166002600084815260200190815260200160002060009054906101000a900473ffffffffffffffffffffffffffffffffffffffff1673ffffffffffffffffffffffffffffffffffffffff1614159050919050565b600033905090565b816004600083815260200190815260200160002060006101000a81548173ffffffffffffffffffffffffffffffffffffffff021916908373ffffffffffffffffffffffffffffffffffffffff160217905550808273ffffffffffffffffffffffffffffffffffffffff16611f248361100d565b73ffffffffffffffffffffffffffffffffffffffff167f8c5be1e5ebec7d5bd14f71427d1e84f3dd0314c0f7b2291e5b200ac8c7c3b92560405160405180910390a45050565b600081600001549050919050565b6001816000016000828254019250508190555050565b611fa88282604051806020016040528060008152506129f3565b5050565b6000611fb782611e3d565b611ff6576040517f08c379a0000000000000000000000000000000000000000000000000000000008152600401611fed90613f1e565b60405180910390fd5b60006120018361100d565b90508073ffffffffffffffffffffffffffffffffffffffff168473ffffffffffffffffffffffffffffffffffffffff16148061207057508373ffffffffffffffffffffffffffffffffffffffff1661205884610935565b73ffffffffffffffffffffffffffffffffffffffff16145b8061208157506120808185611cd2565b5b91505092915050565b8273ffffffffffffffffffffffffffffffffffffffff166120aa8261100d565b73ffffffffffffffffffffffffffffffffffffffff1614612100576040517f08c379a00000000000000000000000000000000000000000000000000000000081526004016120f790613fde565b60405180910390fd5b600073ffffffffffffffffffffffffffffffffffffffff168273ffffffffffffffffffffffffffffffffffffffff161415612170576040517f08c379a000000000000000000000000000000000000000000000000000000000815260040161216790613ede565b60405180910390fd5b61217b838383612a4e565b612186600082611eb1565b6001600360008573ffffffffffffffffffffffffffffffffffffffff1673ffffffffffffffffffffffffffffffffffffffff16815260200190815260200160002060008282546121d691906143bb565b925050819055506001600360008473ffffffffffffffffffffffffffffffffffffffff1673ffffffffffffffffffffffffffffffffffffffff168152602001908152602001600020600082825461222d9190614132565b92505081905550816002600083815260200190815260200160002060006101000a81548173ffffffffffffffffffffffffffffffffffffffff021916908373ffffffffffffffffffffffffffffffffffffffff160217905550808273ffffffffffffffffffffffffffffffffffffffff168473ffffffffffffffffffffffffffffffffffffffff167fddf252ad1be2c89b69c2b068fc378daa952ba7f163c4a11628f55a4df523b3ef60405160405180910390a4505050565b8173ffffffffffffffffffffffffffffffffffffffff168373ffffffffffffffffffffffffffffffffffffffff161415612355576040517f08c379a000000000000000000000000000000000000000000000000000000000815260040161234c90613efe565b60405180910390fd5b80600560008573ffffffffffffffffffffffffffffffffffffffff1673ffffffffffffffffffffffffffffffffffffffff16815260200190815260200160002060008473ffffffffffffffffffffffffffffffffffffffff1673ffffffffffffffffffffffffffffffffffffffff16815260200190815260200160002060006101000a81548160ff0219169083151502179055508173ffffffffffffffffffffffffffffffffffffffff168373ffffffffffffffffffffffffffffffffffffffff167f17307eab39ab6107e8899845ad3d59bd9653f200f220920489ca2b5937696c31836040516124469190613e21565b60405180910390a3505050565b61245e84848461208a565b61246a84848484612a5e565b6124a9576040517f08c379a00000000000000000000000000000000000000000000000000000000081526004016124a090613e9e565b60405180910390fd5b50505050565b606060008214156124f7576040518060400160405280600181526020017f30000000000000000000000000000000000000000000000000000000000000008152509050612657565b600082905060005b6000821461252957808061251290614515565b915050600a8261252291906141bf565b91506124ff565b60008167ffffffffffffffff81111561256b577f4e487b7100000000000000000000000000000000000000000000000000000000600052604160045260246000fd5b6040519080825280601f01601f19166020018201604052801561259d5781602001600182028036833780820191505090505b5090505b60008514612650576001826125b691906143bb565b9150600a856125c59190614568565b60306125d19190614132565b60f81b81838151811061260d577f4e487b7100000000000000000000000000000000000000000000000000000000600052603260045260246000fd5b60200101907effffffffffffffffffffffffffffffffffffffffffffffffffffffffffffff1916908160001a905350600a8561264991906141bf565b94506125a1565b8093505050505b919050565b606060008251141561267f57604051806020016040528060008152509050612802565b6000604051806060016040528060408152602001614e7f60409139905060006003600285516126ae9190614132565b6126b891906141bf565b60046126c49190614361565b905060006020826126d59190614132565b67ffffffffffffffff811115612714577f4e487b7100000000000000000000000000000000000000000000000000000000600052604160045260246000fd5b6040519080825280601f01601f1916602001820160405280156127465781602001600182028036833780820191505090505b509050818152600183018586518101602084015b818310156127c1576003830192508251603f8160121c1685015160f81b8252600182019150603f81600c1c1685015160f81b8252600182019150603f8160061c1685015160f81b8252600182019150603f811685015160f81b82526001820191505061275a565b6003895106600181146127db57600281146127eb576127f6565b613d3d60f01b60028303526127f6565b603d60f81b60018303525b50505050508093505050505b919050565b60606040518060400160405280601581526020017f68747470733a2f2f6176617461616172732e696f2f0000000000000000000000815250905090565b6060806128508361126f565b612859846118cf565b61286285610b69565b61286b86611367565b612874876107ab565b61287d88611a96565b61288689611b94565b61288f8a61175d565b6128988b611665565b6128a18c61145f565b6128aa8d610d66565b6128b38e611177565b6040516020016128ce9c9b9a99989796959493929190613c53565b6040516020818303038152906040529050806128e984610f15565b6040516020016128fa929190613bdf565b604051602081830303815290604052915050919050565b60007f80ac58cd000000000000000000000000000000000000000000000000000000007bffffffffffffffffffffffffffffffffffffffffffffffffffffffff1916827bffffffffffffffffffffffffffffffffffffffffffffffffffffffff191614806129dc57507f5b5e139f000000000000000000000000000000000000000000000000000000007bffffffffffffffffffffffffffffffffffffffffffffffffffffffff1916827bffffffffffffffffffffffffffffffffffffffffffffffffffffffff1916145b806129ec57506129eb82612bf5565b5b9050919050565b6129fd8383612c5f565b612a0a6000848484612a5e565b612a49576040517f08c379a0000000000000000000000000000000000000000000000000000000008152600401612a4090613e9e565b60405180910390fd5b505050565b612a59838383612e2d565b505050565b6000612a7f8473ffffffffffffffffffffffffffffffffffffffff16612f41565b15612be8578373ffffffffffffffffffffffffffffffffffffffff1663150b7a02612aa8611ea9565b8786866040518563ffffffff1660e01b8152600401612aca9493929190613dd5565b602060405180830381600087803b158015612ae457600080fd5b505af1925050508015612b1557506040513d601f19601f82011682018060405250810190612b129190613572565b60015b612b98573d8060008114612b45576040519150601f19603f3d011682016040523d82523d6000602084013e612b4a565b606091505b50600081511415612b90576040517f08c379a0000000000000000000000000000000000000000000000000000000008152600401612b8790613e9e565b60405180910390fd5b805181602001fd5b63150b7a0260e01b7bffffffffffffffffffffffffffffffffffffffffffffffffffffffff1916817bffffffffffffffffffffffffffffffffffffffffffffffffffffffff191614915050612bed565b600190505b949350505050565b60007f01ffc9a7000000000000000000000000000000000000000000000000000000007bffffffffffffffffffffffffffffffffffffffffffffffffffffffff1916827bffffffffffffffffffffffffffffffffffffffffffffffffffffffff1916149050919050565b600073ffffffffffffffffffffffffffffffffffffffff168273ffffffffffffffffffffffffffffffffffffffff161415612ccf576040517f08c379a0000000000000000000000000000000000000000000000000000000008152600401612cc690613f9e565b60405180910390fd5b612cd881611e3d565b15612d18576040517f08c379a0000000000000000000000000000000000000000000000000000000008152600401612d0f90613ebe565b60405180910390fd5b612d2460008383612a4e565b6001600360008473ffffffffffffffffffffffffffffffffffffffff1673ffffffffffffffffffffffffffffffffffffffff1681526020019081526020016000206000828254612d749190614132565b92505081905550816002600083815260200190815260200160002060006101000a81548173ffffffffffffffffffffffffffffffffffffffff021916908373ffffffffffffffffffffffffffffffffffffffff160217905550808273ffffffffffffffffffffffffffffffffffffffff16600073ffffffffffffffffffffffffffffffffffffffff167fddf252ad1be2c89b69c2b068fc378daa952ba7f163c4a11628f55a4df523b3ef60405160405180910390a45050565b612e38838383612f54565b600073ffffffffffffffffffffffffffffffffffffffff168373ffffffffffffffffffffffffffffffffffffffff161415612e7b57612e7681612f59565b612eba565b8173ffffffffffffffffffffffffffffffffffffffff168373ffffffffffffffffffffffffffffffffffffffff1614612eb957612eb88382612fa2565b5b5b600073ffffffffffffffffffffffffffffffffffffffff168273ffffffffffffffffffffffffffffffffffffffff161415612efd57612ef88161310f565b612f3c565b8273ffffffffffffffffffffffffffffffffffffffff168273ffffffffffffffffffffffffffffffffffffffff1614612f3b57612f3a8282613252565b5b5b505050565b600080823b905060008111915050919050565b505050565b6008805490506009600083815260200190815260200160002081905550600881908060018154018082558091505060019003906000526020600020016000909190919091505550565b60006001612faf846110bf565b612fb991906143bb565b905060006007600084815260200190815260200160002054905081811461309e576000600660008673ffffffffffffffffffffffffffffffffffffffff1673ffffffffffffffffffffffffffffffffffffffff168152602001908152602001600020600084815260200190815260200160002054905080600660008773ffffffffffffffffffffffffffffffffffffffff1673ffffffffffffffffffffffffffffffffffffffff168152602001908152602001600020600084815260200190815260200160002081905550816007600083815260200190815260200160002081905550505b6007600084815260200190815260200160002060009055600660008573ffffffffffffffffffffffffffffffffffffffff1673ffffffffffffffffffffffffffffffffffffffff16815260200190815260200160002060008381526020019081526020016000206000905550505050565b6000600160088054905061312391906143bb565b9050600060096000848152602001908152602001600020549050600060088381548110613179577f4e487b7100000000000000000000000000000000000000000000000000000000600052603260045260246000fd5b9060005260206000200154905080600883815481106131c1577f4e487b7100000000000000000000000000000000000000000000000000000000600052603260045260246000fd5b906000526020600020018190555081600960008381526020019081526020016000208190555060096000858152602001908152602001600020600090556008805480613236577f4e487b7100000000000000000000000000000000000000000000000000000000600052603160045260246000fd5b6001900381819060005260206000200160009055905550505050565b600061325d836110bf565b905081600660008573ffffffffffffffffffffffffffffffffffffffff1673ffffffffffffffffffffffffffffffffffffffff168152602001908152602001600020600083815260200190815260200160002081905550806007600084815260200190815260200160002081905550505050565b60006132e46132df846140be565b614099565b9050828152602081018484840111156132fc57600080fd5b613307848285614470565b509392505050565b60008135905061331e81614e22565b92915050565b60008135905061333381614e39565b92915050565b60008135905061334881614e50565b92915050565b60008151905061335d81614e50565b92915050565b600082601f83011261337457600080fd5b81356133848482602086016132d1565b91505092915050565b60008135905061339c81614e67565b92915050565b6000602082840312156133b457600080fd5b60006133c28482850161330f565b91505092915050565b600080604083850312156133de57600080fd5b60006133ec8582860161330f565b92505060206133fd8582860161330f565b9150509250929050565b60008060006060848603121561341c57600080fd5b600061342a8682870161330f565b935050602061343b8682870161330f565b925050604061344c8682870161338d565b9150509250925092565b6000806000806080858703121561346c57600080fd5b600061347a8782880161330f565b945050602061348b8782880161330f565b935050604061349c8782880161338d565b925050606085013567ffffffffffffffff8111156134b957600080fd5b6134c587828801613363565b91505092959194509250565b600080604083850312156134e457600080fd5b60006134f28582860161330f565b925050602061350385828601613324565b9150509250929050565b6000806040838503121561352057600080fd5b600061352e8582860161330f565b925050602061353f8582860161338d565b9150509250929050565b60006020828403121561355b57600080fd5b600061356984828501613339565b91505092915050565b60006020828403121561358457600080fd5b60006135928482850161334e565b91505092915050565b6000602082840312156135ad57600080fd5b60006135bb8482850161338d565b91505092915050565b600080604083850312156135d757600080fd5b60006135e58582860161338d565b92505060206135f68582860161330f565b9150509250929050565b613609816143ef565b82525050565b61361881614401565b82525050565b6000613629826140ef565b6136338185614105565b935061364381856020860161447f565b61364c81614655565b840191505092915050565b6000613662826140fa565b61366c8185614116565b935061367c81856020860161447f565b61368581614655565b840191505092915050565b600061369b826140fa565b6136a58185614127565b93506136b581856020860161447f565b80840191505092915050565b60006136ce601183614127565b91506136d982614673565b601182019050919050565b60006136f1601e83614116565b91506136fc8261469c565b602082019050919050565b6000613714602b83614116565b915061371f826146c5565b604082019050919050565b6000613737603283614116565b915061374282614714565b604082019050919050565b600061375a601c83614116565b915061376582614763565b602082019050919050565b600061377d600a83614127565b91506137888261478c565b600a82019050919050565b60006137a0600c83614127565b91506137ab826147b5565b600c82019050919050565b60006137c3602483614116565b91506137ce826147de565b604082019050919050565b60006137e6601983614116565b91506137f18261482d565b602082019050919050565b6000613809600b83614127565b915061381482614856565b600b82019050919050565b600061382c602c83614116565b91506138378261487f565b604082019050919050565b600061384f600d83614127565b915061385a826148ce565b600d82019050919050565b6000613872600b83614127565b915061387d826148f7565b600b82019050919050565b6000613895600183614127565b91506138a082614920565b600182019050919050565b60006138b8601883614127565b91506138c382614949565b601882019050919050565b60006138db603883614116565b91506138e682614972565b604082019050919050565b60006138fe602a83614116565b9150613909826149c1565b604082019050919050565b6000613921602983614116565b915061392c82614a10565b604082019050919050565b6000613944600b83614127565b915061394f82614a5f565b600b82019050919050565b6000613967600283614127565b915061397282614a88565b600282019050919050565b600061398a602083614116565b915061399582614ab1565b602082019050919050565b60006139ad600d83614127565b91506139b882614ada565b600d82019050919050565b60006139d0602c83614116565b91506139db82614b03565b604082019050919050565b60006139f3602983614116565b91506139fe82614b52565b604082019050919050565b6000613a16600983614127565b9150613a2182614ba1565b600982019050919050565b6000613a39600983614127565b9150613a4482614bca565b600982019050919050565b6000613a5c603e83614127565b9150613a6782614bf3565b603e82019050919050565b6000613a7f602183614116565b9150613a8a82614c42565b604082019050919050565b6000613aa2600d83614127565b9150613aad82614c91565b600d82019050919050565b6000613ac5601083614127565b9150613ad082614cba565b601082019050919050565b6000613ae8601d83614127565b9150613af382614ce3565b601d82019050919050565b6000613b0b603183614116565b9150613b1682614d0c565b604082019050919050565b6000613b2e602c83614116565b9150613b3982614d5b565b604082019050919050565b6000613b51601083614127565b9150613b5c82614daa565b601082019050919050565b6000613b74603083614116565b9150613b7f82614dd3565b604082019050919050565b613b9381614459565b82525050565b613baa613ba582614459565b61455e565b82525050565b6000613bbc8285613690565b9150613bc782613888565b9150613bd38284613690565b91508190509392505050565b6000613beb8285613690565b9150613bf682613a2c565b9150613c028284613690565b91508190509392505050565b6000613c19826138ab565b9150613c258285613690565b9150613c3082613a4f565b9150613c3c8284613690565b9150613c478261395a565b91508190509392505050565b6000613c5e82613ab8565b9150613c6a828f613690565b9150613c7582613842565b9150613c81828e613690565b9150613c8c82613793565b9150613c98828d613690565b9150613ca382613a09565b9150613caf828c613690565b9150613cba82613a95565b9150613cc6828b613690565b9150613cd1826136c1565b9150613cdd828a613690565b9150613ce882613b44565b9150613cf48289613690565b9150613cff826137fc565b9150613d0b8288613690565b9150613d1682613770565b9150613d228287613690565b9150613d2d826139a0565b9150613d398286613690565b9150613d4482613937565b9150613d508285613690565b9150613d5b82613865565b9150613d678284613690565b91508190509d9c50505050505050505050505050565b6000613d8882613adb565b9150613d948284613690565b915081905092915050565b6000613dab8284613b99565b60208201915081905092915050565b6000602082019050613dcf6000830184613600565b92915050565b6000608082019050613dea6000830187613600565b613df76020830186613600565b613e046040830185613b8a565b8181036060830152613e16818461361e565b905095945050505050565b6000602082019050613e36600083018461360f565b92915050565b60006020820190508181036000830152613e568184613657565b905092915050565b60006020820190508181036000830152613e77816136e4565b9050919050565b60006020820190508181036000830152613e9781613707565b9050919050565b60006020820190508181036000830152613eb78161372a565b9050919050565b60006020820190508181036000830152613ed78161374d565b9050919050565b60006020820190508181036000830152613ef7816137b6565b9050919050565b60006020820190508181036000830152613f17816137d9565b9050919050565b60006020820190508181036000830152613f378161381f565b9050919050565b60006020820190508181036000830152613f57816138ce565b9050919050565b60006020820190508181036000830152613f77816138f1565b9050919050565b60006020820190508181036000830152613f9781613914565b9050919050565b60006020820190508181036000830152613fb78161397d565b9050919050565b60006020820190508181036000830152613fd7816139c3565b9050919050565b60006020820190508181036000830152613ff7816139e6565b9050919050565b6000602082019050818103600083015261401781613a72565b9050919050565b6000602082019050818103600083015261403781613afe565b9050919050565b6000602082019050818103600083015261405781613b21565b9050919050565b6000602082019050818103600083015261407781613b67565b9050919050565b60006020820190506140936000830184613b8a565b92915050565b60006140a36140b4565b90506140af82826144e4565b919050565b6000604051905090565b600067ffffffffffffffff8211156140d9576140d8614626565b5b6140e282614655565b9050602081019050919050565b600081519050919050565b600081519050919050565b600082825260208201905092915050565b600082825260208201905092915050565b600081905092915050565b600061413d82614459565b915061414883614459565b9250827fffffffffffffffffffffffffffffffffffffffffffffffffffffffffffffffff0382111561417d5761417c614599565b5b828201905092915050565b600061419382614463565b915061419e83614463565b92508260ff038211156141b4576141b3614599565b5b828201905092915050565b60006141ca82614459565b91506141d583614459565b9250826141e5576141e46145c8565b5b828204905092915050565b6000808291508390505b600185111561423a5780860481111561421657614215614599565b5b60018516156142255780820291505b808102905061423385614666565b94506141fa565b94509492505050565b600061424e82614459565b915061425983614463565b92506142867fffffffffffffffffffffffffffffffffffffffffffffffffffffffffffffffff848461428e565b905092915050565b60008261429e576001905061435a565b816142ac576000905061435a565b81600181146142c257600281146142cc576142fb565b600191505061435a565b60ff8411156142de576142dd614599565b5b8360020a9150848211156142f5576142f4614599565b5b5061435a565b5060208310610133831016604e8410600b84101617156143305782820a90508381111561432b5761432a614599565b5b61435a565b61433d84848460016141f0565b9250905081840481111561435457614353614599565b5b81810290505b9392505050565b600061436c82614459565b915061437783614459565b9250817fffffffffffffffffffffffffffffffffffffffffffffffffffffffffffffffff04831182151516156143b0576143af614599565b5b828202905092915050565b60006143c682614459565b91506143d183614459565b9250828210156143e4576143e3614599565b5b828203905092915050565b60006143fa82614439565b9050919050565b60008115159050919050565b60007fffffffff0000000000000000000000000000000000000000000000000000000082169050919050565b600073ffffffffffffffffffffffffffffffffffffffff82169050919050565b6000819050919050565b600060ff82169050919050565b82818337600083830152505050565b60005b8381101561449d578082015181840152602081019050614482565b838111156144ac576000848401525b50505050565b600060028204905060018216806144ca57607f821691505b602082108114156144de576144dd6145f7565b5b50919050565b6144ed82614655565b810181811067ffffffffffffffff8211171561450c5761450b614626565b5b80604052505050565b600061452082614459565b91507fffffffffffffffffffffffffffffffffffffffffffffffffffffffffffffffff82141561455357614552614599565b5b600182019050919050565b6000819050919050565b600061457382614459565b915061457e83614459565b92508261458e5761458d6145c8565b5b828206905092915050565b7f4e487b7100000000000000000000000000000000000000000000000000000000600052601160045260246000fd5b7f4e487b7100000000000000000000000000000000000000000000000000000000600052601260045260246000fd5b7f4e487b7100000000000000000000000000000000000000000000000000000000600052602260045260246000fd5b7f4e487b7100000000000000000000000000000000000000000000000000000000600052604160045260246000fd5b6000601f19601f8301169050919050565b60008160011c9050919050565b7f2666616369616c48616972436f6c6f723d000000000000000000000000000000600082015250565b7f4e6f20506c61747a6950756e6b73206c6566742c20736f72727921203a280000600082015250565b7f455243373231456e756d657261626c653a206f776e657220696e646578206f7560008201527f74206f6620626f756e6473000000000000000000000000000000000000000000602082015250565b7f4552433732313a207472616e7366657220746f206e6f6e20455243373231526560008201527f63656976657220696d706c656d656e7465720000000000000000000000000000602082015250565b7f4552433732313a20746f6b656e20616c7265616479206d696e74656400000000600082015250565b7f26686174436f6c6f723d00000000000000000000000000000000000000000000600082015250565b7f26636c6f746865547970653d0000000000000000000000000000000000000000600082015250565b7f4552433732313a207472616e7366657220746f20746865207a65726f2061646460008201527f7265737300000000000000000000000000000000000000000000000000000000602082015250565b7f4552433732313a20617070726f766520746f2063616c6c657200000000000000600082015250565b7f2668616972436f6c6f723d000000000000000000000000000000000000000000600082015250565b7f4552433732313a206f70657261746f7220717565727920666f72206e6f6e657860008201527f697374656e7420746f6b656e0000000000000000000000000000000000000000602082015250565b7f26636c6f746865436f6c6f723d00000000000000000000000000000000000000600082015250565b7f26736b696e436f6c6f723d000000000000000000000000000000000000000000600082015250565b7f3f00000000000000000000000000000000000000000000000000000000000000600082015250565b7f7b20226e616d65223a2022506c61747a6950756e6b7320230000000000000000600082015250565b7f4552433732313a20617070726f76652063616c6c6572206973206e6f74206f7760008201527f6e6572206e6f7220617070726f76656420666f7220616c6c0000000000000000602082015250565b7f4552433732313a2062616c616e636520717565727920666f7220746865207a6560008201527f726f206164647265737300000000000000000000000000000000000000000000602082015250565b7f4552433732313a206f776e657220717565727920666f72206e6f6e657869737460008201527f656e7420746f6b656e0000000000000000000000000000000000000000000000602082015250565b7f266d6f757468547970653d000000000000000000000000000000000000000000600082015250565b7f227d000000000000000000000000000000000000000000000000000000000000600082015250565b7f4552433732313a206d696e7420746f20746865207a65726f2061646472657373600082015250565b7f2667726170686963547970653d00000000000000000000000000000000000000600082015250565b7f4552433732313a20617070726f76656420717565727920666f72206e6f6e657860008201527f697374656e7420746f6b656e0000000000000000000000000000000000000000602082015250565b7f4552433732313a207472616e73666572206f6620746f6b656e2074686174206960008201527f73206e6f74206f776e0000000000000000000000000000000000000000000000602082015250565b7f26657965547970653d0000000000000000000000000000000000000000000000600082015250565b7f26546f70547970653d0000000000000000000000000000000000000000000000600082015250565b7f222c20226465736372697074696f6e223a2022506c61747a6950756e6b73206960008201527f7320612072616e646f6d20617661746172222c2022696d616765223a20220000602082015250565b7f4552433732313a20617070726f76616c20746f2063757272656e74206f776e6560008201527f7200000000000000000000000000000000000000000000000000000000000000602082015250565b7f2665796562726f77547970653d00000000000000000000000000000000000000600082015250565b7f6163636573736f72696573547970653d00000000000000000000000000000000600082015250565b7f646174613a6170706c69636174696f6e2f6a736f6e3b6261736536342c000000600082015250565b7f4552433732313a207472616e736665722063616c6c6572206973206e6f74206f60008201527f776e6572206e6f7220617070726f766564000000000000000000000000000000602082015250565b7f455243373231456e756d657261626c653a20676c6f62616c20696e646578206f60008201527f7574206f6620626f756e64730000000000000000000000000000000000000000602082015250565b7f2666616369616c48616972547970653d00000000000000000000000000000000600082015250565b7f455243373231204d657461646174613a2055524920717565727920666f72206e60008201527f6f6e6578697374656e7420746f6b656e00000000000000000000000000000000602082015250565b614e2b816143ef565b8114614e3657600080fd5b50565b614e4281614401565b8114614e4d57600080fd5b50565b614e598161440d565b8114614e6457600080fd5b50565b614e7081614459565b8114614e7b57600080fd5b5056fe4142434445464748494a4b4c4d4e4f505152535455565758595a6162636465666768696a6b6c6d6e6f707172737475767778797a303132333435363738392b2fa26469706673582212204c02f890e6d3d275d9b411f3fb8dc008a7fac62ed21a1a13a53c70631d4b65b164736f6c63430008040033",
    "linkReferences": {},
    "deployedLinkReferences": {}
}